:10000000BAC00000D4C00000D2C00000D0C00000C0
:10001000CEC00000CCC00000CAC00000C8C00000B4
:10002000C6C00000C4C000000C94BC0C0C94F70CBB
:10003000BEC00000BCC00000BAC00000B8C00000D4
:10004000B6C00000B4C00000B2C00000B0C00000E4
:100050000C940709ACC00000AAC00000A8C00000B2
:10006000A6C00000A4C00000A2C00000A0C0000004
:100070009EC0000038C200009AC0000098C0000076
:1000800096C0000094C0000092C0000090C0000024
:100090008EC000008CC000008AC0000088C0000034
:1000A00086C0000084C0000082C000000001000083
:1000B000E0001200020000F20043000300003501DE
:1000C0000401030904390114020309044F01160352
:1000D00003090467010C0001C11201803601813659
:1000E0001201000202000010C0167A040001010291
:1000F000030109024300020100C0320904000001AB
:10010000020201000524001001052401010104245C
:1001100002060524060001070582031000400904B9
:100120000100020A00000007050302400000070565
:10013000840240000004030904140359006F007591
:1001400000720020004E0061006D00650000001686
:1001500003550053004200200053006500720069FF
:100160000061006C0000000C0331003200330034E9
:1001700000350000000011241FBECFEFDAE0DEBF23
:10018000CDBF13E0A0E0B1E0E4EFF0E202C00590E3
:100190000D92AC34B107D9F715E0ACE4B3E001C07F
:1001A0001D92AD3BB107E1F74FD00C94781028CFEA
:1001B0001F93CF93DF9313E3C0E9D1E0E6D188E842
:1001C00093E1FE013197F1F70197D9F786E263E0F9
:1001D0001ED2812FE9D188E893E1FE013197F1F732
:1001E0000197D9F71150103349F7DF91CF911F9143
:1001F00008958130910561F486E064E008D280E0E2
:1002000091E0FAD188E163E002D28CE091E0F4C1A0
:10021000029761F488E163E0FAD182E191E0ECD1E8
:1002200086E064E0F4D188E191E0E6C10895ADD1C3
:100230008DE060E0ECD183E291E0DED18DE061E021
:10024000E6D18CE291E0D8C10F931F93CF93DF9357
:10025000599A5A9A879A8F980E94610C84E676D1AF
:1002600000E911E0E4DF81E090E0C3DFC1E0D0E02D
:10027000CE01BFDF499B1AC04A99FACF219688EE7A
:1002800093E0F8013197F1F70197D9F7C230D10522
:1002900069F7EECF8DDF81E090E005C0229711F77E
:1002A00087DF82E090E00E94730BDCCFC130D10584
:1002B000A9F7F0CF582F862F869586958695282FFB
:1002C00030E070E0677070704130C1F484E590E018
:1002D000289FF001299FF00D389FF00D1124E50FA4
:1002E000F11DE75AFC4F81E090E002C0880F991F92
:1002F0006A95E2F72081282B208308954423C1F4D6
:1003000084E590E0289FF001299FF00D389FF00DC3
:100310001124E50FF11DE75AFC4F81E090E002C087
:10032000880F991F6A95E2F7809520812823208302
:1003300008954F925F926F927F928F929F92AF92A9
:10034000BF92CF92DF92EF92FF920F931F93CF93C2
:10035000DF93982E862E642E772490E02301481A8E
:10036000590AC22EDD24E62EFF245601AE18BF081E
:10037000941621F4C0E0D0E087010CC0C0E0D0E0CA
:1003800000E010E06C011AC0682D6C0F892D41E06F
:1003900091DF2196CE01800F911FC816D906A4F7D0
:1003A00015C0C8018A199B09B2010E9451106E0D37
:1003B0007F1D892D8C0F41E07DDF21960A0D1B1DCD
:1003C000CE018C0D9D1D681679065CF7DF91CF91EB
:1003D0001F910F91FF90EF90DF90CF90BF90AF9063
:1003E0009F908F907F906F905F904F900895E9E578
:1003F000F3E0119285E0E135F807D9F70895BF924F
:10040000CF92DF92EF92FF920F931F93CF93DF93E0
:10041000B82EC62ED42EC0E0D0E0E42EFF24022F4A
:1004200010E007C02D2D2C0F8B2D622F4C2D81DF5E
:100430002196CE018E0D9F1D081719079CF7DF919D
:10044000CF911F910F91FF90EF90DF90CF90BF90D1
:100450000895CF93DF9380E060E0D9D0C9E5D3E081
:1004600081E0699165D085E0C135D807C9F7DF9192
:10047000CF91089560934C03982F90729068909359
:100480007B008F71806480937C0086E880937A0083
:10049000662339F080917A0098E4892780937A0066
:1004A0007894089580914C03882391F480917A0088
:1004B00090E4892780937A0080917A0086FDFCCFB2
:1004C0008091780080934D038091790080934E0352
:1004D00040914E0320914D03942F80E030E0282B73
:1004E000392BC90108951F920F920FB60F92112454
:1004F0008F93EF93FF938091780080934D038091C9
:10050000790080934E03EAE7F0E080818064808385
:10051000FF91EF918F910F900FBE0F901F90189544
:10052000229A219A209A8FEF84B980E58CBD089594
:1005300095B18795882787959F77982B95B92898A7
:100540006EBD0DB407FEFDCF289A08951F93182F96
:10055000E7DF279A239A2B982B9A80E061E2E8DF65
:10056000106880E0612FE4DF80E063E1E1DF80E09C
:1005700060E2DEDF80E06CE0DBDF80E060E4D8DFBB
:1005800080E060E8D5DF1F910895CF93DF93C0E04E
:10059000D0E081E060E0CCDF219681E0C83FD80761
:1005A000C1F7DF91CF9108950F931F93CF93DF93FE
:1005B000182F81E060E0BCDF812F90E08097EC0194
:1005C000CC0FDD1FCC0FDD1FC80FD91FCB5CDE4F5A
:1005D00085E0189F8001112406561F4F81E0699124
:1005E000A7DFC017D107D1F781E060E0A1DFDF917D
:1005F000CF911F910F910895CF93DF93EC0101C02C
:10060000D3DF89918823E1F7DF91CF9108951F937C
:10061000982F162F843550F4663040F4906880E0AF
:10062000692F86DF106480E0612F82DF1F910895BB
:10063000109284051092830540E150E050938605A6
:100640004093850581E090E090938805809387052D
:100650002EE130E030938A052093890510928C05B5
:1006600010928B0582E590E09093A00580939F0502
:100670005093A2054093A10583E590E09093A405D3
:100680008093A3053093A6052093A50588E290E00A
:10069000909396058093950546E150E05093980518
:1006A000409397058AE290E090939A05809399058C
:1006B00028E130E030939C0520939B051092B8050B
:1006C0001092B70587E290E09093AC058093AB055C
:1006D0005093AE054093AD0589E290E09093B0054C
:1006E0008093AF053093B2052093B1051092BA05FF
:1006F0001092B90580E090E0A0E0B0E080938D0515
:1007000090938E05A0938F05B0939005109252059B
:1007100010925105089581E090E0909354058093E4
:10072000530510925605109255051092B40510927B
:10073000B3051092B6051092B5058FEF9FEF909319
:10074000A8058093A7051092AA051092A9050895FF
:1007500020E030E040E951E022C0FA013197F1F7A2
:100760000197D9F7499902C04A9B03C0213031054E
:1007700049F4499B05C04A9B03C022E030E002C017
:1007800021E030E081B3805881BB84EC99E0FA012C
:100790003197F1F70197D9F72230310519F084EC40
:1007A00099E0DBCF8F9808956091510370915203C7
:1007B00040912E0350912F038091BB059091BC0571
:1007C000029729F083E090E0E1E0F0E017C060914B
:1007D0005303709154034091300350913103809141
:1007E0008B0590918C05909581959F4F90938C05EA
:1007F00080938B0582E090E0E0E0F0E020918B05B3
:1008000030918C05AFEF2F3F3A07C1F4EE0FFF1F79
:10081000ED57FA4F208131816217730764F521503B
:10082000304031832083FC01EE0FFF1FED57FA4F5C
:10083000808191810197918380831DC02130310592
:10084000D1F4DC01AA0FBB1FAD57BA4F8D919C911B
:100850001197841795077CF4EE0FFF1FED57FA4FA1
:10086000808191810196918380838D919C911197D4
:1008700001968D939C9310928C0510928B05089590
:1008800040919705509198052091A1053091A205BE
:10089000C901079684179507C4F44091A5055091A6
:1008A000A60580912E0390912F034817590744F510
:1008B0002F5F3F4F3093A2052093A1054F5F5F4FFD
:1008C0005093A6054093A5050895C901069684177F
:1008D0009507B4F0809151039091520382179307CA
:1008E0007CF4215030403093A2052093A1058091E3
:1008F000A5059091A60501979093A6058093A5055F
:100900000895209197053091980580915103909119
:1009100052032817390719F483E090E00DC02091A5
:100920009B0530919C0580912E0390912F032817F1
:10093000390739F484E090E0909352058093510593
:1009400008956091AB057091AC05809187059091F9
:10095000880586179707CCF02091B1053091B20534
:1009600080918505909186052817390774F02091AC
:10097000AD053091AE058091890590918A05821769
:1009800093071CF081E090E0D7CF4091AF055091E4
:10099000B00580919F059091A00548175907CCF0AC
:1009A0002091B1053091B2058091A1059091A205E9
:1009B0002817390774F02091AD053091AE0580916C
:1009C000A5059091A605821793071CF082E090E0A0
:1009D000B3CF8091300390913103481759071CF130
:1009E0002091B1053091B2058091A1059091A205A9
:1009F000281739075CF02091AD053091AE05809144
:100A0000A5059091A605821793076CF485E090E008
:100A1000909352058093510581E090E090935805A2
:100A2000809357050895809153039091540386173E
:100A3000970714F12091B1053091B2058091850599
:100A400090918605281739075CF02091AD0530910B
:100A5000AE058091890590918A058217930764F409
:100A600085E090E0909352058093510582E090E0FC
:100A700090935805809357050895CF92DF92EF9297
:100A8000FF920F931F93CF93DF937C011092B605D3
:100A90001092B5051092B4051092B305C090BB0535
:100AA000D090BC0581E0C816D10449F4C1E0D0E083
:100AB00003E010E0A0E0B0E021E030E00CC092E004
:100AC000C916D10441F4C0E0D0E002E010E0A1E09A
:100AD000B0E020E030E081E0E816F104F1F4FE013E
:100AE000EE0FFF1FED57FA4F80819181AC014B5FF4
:100AF0005F4FBC01685F7F4FAA0FBB1FA955BA4F5C
:100B0000ED92FC9292E0C916D10429F58FEF9FEF88
:100B10009093AA058093A9051EC082E0E816F1040F
:100B200029F040E050E060E070E015C0FE01EE0FFB
:100B3000FF1FE156FA4F80819181AC014B5F5F4FFF
:100B4000BC01685F7F4FAA0FBB1FA955BA4F8FEF3B
:100B50009FEF8D939C93CC0FDD1FCB56DA4FE8812E
:100B6000F981E417F50774F4220F331F29553A4F22
:100B70008FEF9FEFD9018D939C93CA018E1B9F0B22
:100B8000FC011CC0000F111F0B561A4FD801ED912C
:100B9000FC91D901AA0FBB1F6E177F074CF4A95512
:100BA000BA4F81E090E08D939C93E61BF70B06C053
:100BB000A955BA4F1D921C92E0E0F0E0F093B80501
:100BC000E093B705E530F10509F472C0E630F105B0
:100BD000BCF4E230F10509F44AC0E330F1053CF41D
:100BE000309739F1E130F10509F09CC031C0E330B4
:100BF000F10509F43FC0E430F10509F093C047C0A6
:100C0000E830F10509F46DC0E930F1054CF4E63047
:100C1000F10509F45AC0E730F10509F083C05EC060
:100C2000E930F10509F46CC0EA30F10509F07AC049
:100C300067C0109256051092550581E090E09093A0
:100C40005405809353051092BA051092B9056AC0F5
:100C5000F0935605E093550584E090E09093540599
:100C600080935305F093BA05E093B9055BC021E08A
:100C700030E00FC081E090E09093560580935505D9
:100C800082E090E0909354058093530547C022E0A2
:100C900030E0309356052093550583E090E0909323
:100CA0005405809353053093BA052093B9053AC093
:100CB00081E090E0909356058093550590935405FC
:100CC0008093530583E090E029C023E030E0309327
:100CD00056052093550582E090E0E1CF82E090E058
:100CE00002C083E090E0909356058093550581E023
:100CF00090E0909354058093530584E090E00EC0FB
:100D000084E090E0909356058093550581E090E053
:100D1000909354058093530585E090E09093BA0535
:100D20008093B9054091530550915405B2E0CB161C
:100D3000D10491F5EF2B21F41092B8051092B7056C
:100D40002091B7053091B8052A30310589F481E04A
:100D500090E09093B8058093B705909354058093E5
:100D6000530584E090E0909356058093550514C098
:100D700080915505909156059093540580935305A5
:100D800050935605409355058AE090E0821B930BE3
:100D90009093B8058093B705DF91CF911F910F9184
:100DA000FF90EF90DF90CF9008958091B7059091DC
:100DB000B805009721F08530910509F049C0A09150
:100DC000A705B091A80560919505709196056A0FE9
:100DD0007B1F7093960560939505409199055091FE
:100DE0009A054A0F5B1F50939A0540939905E0912D
:100DF000A905F091AA0520919705309198052E0F2D
:100E00003F1F309398052093970580919B05909103
:100E10009C058E0F9F1F90939C0580939B056A0FE6
:100E20007B1F7093AC056093AB054A0F5B1F50931B
:100E3000B0054093AF052E0F3F1F3093AE052093B2
:100E4000AD058E0F9F1F9093B2058093B105089555
:100E500084309105B4F54091A7055091A8052091E3
:100E6000950530919605240F351F309396052093F4
:100E700095058091990590919A05840F951F9093FF
:100E80009A0580939905240F351F3093AC05209364
:100E9000AB05840F951F9093B0058093AF058091AB
:100EA000B3059091B40501969093B4058093B30572
:100EB00020915305309154058217930709F021C101
:100EC00038C08430910509F05DC04091A70550916C
:100ED000A8052091950530919605240F351F309374
:100EE0009605209395058091990590919A05840F18
:100EF000951F90939A0580939905240F351F309381
:100F0000AC052093AB05840F951F9093B00580939B
:100F1000AF058091B3059091B40501969093B40507
:100F20008093B30562E070E00E945110019709F0D0
:100F3000E8C04091A9055091AA05209197053091EC
:100F40009805240F351F30939805209397058091BD
:100F50009B0590919C05840F951F90939C05809311
:100F60009B05240F351F3093AE052093AD05840FEC
:100F7000951F9093B2058093B1051092B40510921D
:100F8000B3050895873091050CF45EC04091A90522
:100F90005091AA052091970530919805240F351F8F
:100FA000309398052093970580919B0590919C051F
:100FB000840F951F90939C0580939B05240F351FEC
:100FC0003093AE052093AD05840F951F9093B20525
:100FD0008093B1058091B5059091B60501969093E7
:100FE000B6058093B50520915505309156058217B9
:100FF000930709F086C04091A7055091A80520915C
:10100000950530919605240F351F30939605209352
:1010100095058091990590919A05840F951F90935D
:101020009A0580939905240F351F3093AC052093C2
:10103000AB05840F951F9093B0058093AF05109278
:10104000B6051092B5050895069709F05AC040916B
:10105000A9055091AA052091970530919805240F74
:10106000351F309398052093970580919B059091AB
:101070009C05840F951F90939C0580939B05240FDE
:10108000351F3093AE052093AD05840F951F9093C7
:10109000B2058093B1058091B5059091B605019692
:1010A0009093B6058093B50562E070E0FAD701979A
:1010B00041F54091A7055091A805209195053091E3
:1010C0009605240F351F3093960520939505809142
:1010D000990590919A05840F951F90939A05809396
:1010E0009905240F351F3093AC052093AB05840F71
:1010F000951F9093B0058093AF051092B60510929E
:10110000B505089582E290E090938405809383056D
:1011100080E390E090938805809387058EE290E0CD
:1011200090938605809385058FE290E090938A05E1
:101130008093890548E250E05093960540939505C9
:101140002AE230E030939A052093990586E190E0F9
:10115000909398058093970588E190E090939C0583
:1011600080939B055093AC054093AB053093B0053D
:101170002093AF0587E190E09093AE058093AD0595
:1011800089E190E09093B2058093B1051092A80593
:101190001092A70581E090E09093AA058093A9059D
:1011A000109254051092530590935605809355055F
:1011B0001092B4051092B3051092B6051092B505C1
:1011C0001092B8051092B7051092BA051092B905A1
:1011D00080E090E0A0E0B0E080938D0590938E05D4
:1011E000A0938F05B093900510925205109251056F
:1011F0001092940510929305E9E5F5E081E090E006
:101200008193919325E0E338F207D1F708951F9277
:101210000F920FB60F9211248F939F938091910597
:1012200090919205019690939205809391058091FB
:101230004F039091500301969093500380934F0376
:101240009F918F910F900FBE0F901F901895CF9385
:10125000DF939C01220F331F220F331F280F391FEA
:101260008091AD059091AE05281739071CF4C3E0B5
:10127000D0E029C08091B1059091B2058217930703
:101280001CF4C4E0D0E01FC09B01220F331F260FC7
:10129000371F220F331F220F331F8091AB05909110
:1012A000AC05281739071CF0C7E0D0E00CC08091CE
:1012B000AF059091B005821793071CF0C6E0D0E00F
:1012C00002C0C0E0D0E09E01205D822F13D3D093F6
:1012D0005205C0935105E2D0DF91CF910895CF938D
:1012E000DF932091B1053091B205809185059091F1
:1012F0008605281739070CF047C0209195053091D5
:1013000096052F5F3F4FC9016CE070E0CAD6892B6C
:1013100039F0C9016CE070E0C4D6EB01219605C03C
:10132000C9016CE070E0BDD6EB018091970590910A
:10133000980565E070E0B5D6633071052CF5FB01CA
:10134000B3E0EE0FFF1FBA95E1F7E61BF70B3197FD
:10135000EC0FFD1FEE0FFF1FE75AFA4F80819181BE
:10136000019791F4118210828091930590919405D8
:1013700001969093940580939305CB01BE0167DF9E
:1013800090935205809351052091990530919A05CB
:101390008091300390913103281739071CF086E0C3
:1013A00090E00DC0209195053091960580915303F2
:1013B00090915403821793073CF087E090E090935C
:1013C0005205809351055BC0209197053091980597
:1013D0008091510390915203821793071CF083E090
:1013E00090E0EDCF4091B1055091B2058091850517
:1013F0009091860548175907CCF02091AF053091A0
:10140000B00580918305909184052817390774F001
:101410002091AB053091AC058091870590918805AE
:10142000821793071CF081E090E0C9CF80912E03D2
:1014300090912F034817590714F12091AF0530916F
:10144000B0058091830590918405281739075CF0D9
:101450002091AB053091AC0580918705909188056E
:101460008217930764F485E090E09093520580938F
:10147000510582E090E09093580580935705DF91E5
:10148000CF91089510925205109251058091BB059D
:101490009091BC05029709F422CF33CA20915105DF
:1014A00030915205C9010197029710F4C901E5DA9C
:1014B00080915105909152058530910529F4109243
:1014C0009E0510929D051EC08330910519F481E0A0
:1014D00090E005C08430910539F48FEF9FEF909331
:1014E000AA058093A9050EC08630910519F48FEFE7
:1014F0009FEF04C0079731F481E090E09093A80536
:101500008093A70552DCBECFAF92BF92CF92DF92FD
:10151000EF92FF920F931F93CF93DF930E94F701F7
:10152000809183056091870540918505209189050B
:101530000E94FF0180919505609199054091970562
:1015400020919B050E94FF01C0E0D0E029E5A22E7A
:1015500025E0B22E20E030E091E0E92EF12C00E011
:1015600010E02EC0C730D1056CF0CE0167E070E00E
:1015700098D5892B39F482E0E82EF12CE00EF11E8B
:1015800020E030E0A9014F5F5F4F1AE0C12ED12C5F
:10159000C20ED31E87010D5F1F4FF501808191811F
:1015A000019731F4842F6C2D4E2D202F0E94FF01C6
:1015B00096012E5F3F4F219682E090E0A80EB91E63
:1015C000C531D1057CF20E942902DF91CF911F9194
:1015D0000F91FF90EF90DF90CF90BF90AF90089564
:1015E00091DD92CF0E94F70180918305609187057C
:1015F00040918505209189050E94FF0180919F05FA
:101600006091A3054091A1052091A5050E94FF01CD
:1016100080919505609199054091970520919B05D2
:101620000E94FF010C9429028091BB059091BC059A
:10163000019709F4D7CF68CFEF92FF920F931F93D2
:10164000CF93DF930E94F7010F2EF0E0EF2EF0E032
:10165000FF2EF0E00F2FF0E01F2FF02DC0E0D0E0C4
:101660000E945202AA2797FDA095BA2FBC01CD0176
:1016700029D49B01AC01C801B70125D37B018C01A2
:101680002196C530D10561F720E030E040EA50E412
:101690007ED320E030EC4FE754E479D3DF91CF9153
:1016A0001F910F91FF90EF9008950E94C5028DE069
:1016B00062E00E94070380915705909158058130A0
:1016C000910519F485E193E004C0029721F48EE1BD
:1016D00093E00E94FC028BE163E00E94070387E233
:1016E00093E00C94FC024F925F926F927F928F92E4
:1016F0009F92AF92BF92CF92DF92EF92FF920F93A1
:101700001F93CF93DF939093BC058093BB0581E03B
:1017100090E090939E0580939D0580E061E00E949B
:101720003A0210929205109291058091BB0590911A
:10173000BC058130910549F41092500310924F037B
:101740000E9418030E948B0303C0029709F448DF2C
:101750006BDFC1E0D0E044244A94542C30E4632E83
:101760003CE9732E91C0E0903203F09033038091F6
:10177000B9059091BA05E81AF90A5EDF4B015C01E0
:1017800060938D0570938E0580938F0590939005DF
:101790000027F7FC0095102FC801B70193D36B0108
:1017A0007C0170DE499905C050928C0540928B05F2
:1017B00006C04A9906C0D0938C05C0938B050E9441
:1017C000D40349990AC04A9908C0D0935805C093D8
:1017D000570510929E0510929D050091910510915C
:1017E0009205C701B601A5019401F8D39B01AC0194
:1017F000C701B60167D233D3061717072CF04EDEA8
:1018000010929205109291058091BB059091BC05B4
:101810000197C9F420914F03309150038091340314
:1018200090913503821793072CF42AD81092500315
:1018300010924F0380914F03909150030196909323
:10184000500380934F038091BB059091BC05029794
:1018500071F48091930590919405459741F410920D
:101860009E0510929D05D0935805C0935705DCDE68
:10187000C3010197F1F7809191059091920501962E
:10188000909392058093910580919D0590919E057E
:10189000892B09F068CF0E94F70107DF0E94A80397
:1018A000DF91CF911F910F91FF90EF90DF90CF903C
:1018B000BF90AF909F908F907F906F905F904F9070
:1018C000089581E08093D70080EA8093D80082E178
:1018D00089BD09B400FEFDCF80E98093D800109245
:1018E000E00010925503109256038CE08093E200C2
:1018F00078940895482F809155038823D9F12FB704
:10190000F89484E08093E90080915803882341F0A3
:101910008091E80085FD02C02FBF12C010925803CD
:101920009091E400975E34E08091E80085FD13C05B
:101930002FBF8091E400891729F481E08093580338
:101940008FEF0895809155038823A1F02FB7F89465
:101950003093E900E9CF4093F1008091E80085FDE4
:1019600003C08AE38093E80085E0809357032FBF8C
:1019700080E008958FEF08951F920F920FB60F9297
:1019800011248F939F938091E1001092E100982F92
:1019900083FF11C01092E90081E08093EB00109268
:1019A000EC0082E18093ED0088E08093F0001092DB
:1019B00055031092560392FF13C08091550388235C
:1019C00079F080915703882359F081508093570311
:1019D000882331F484E08093E9008AE38093E8006F
:1019E0009F918F910F900FBE0F901F9018951F928F
:1019F0000F920FB60F9211240F931F932F933F93C3
:101A00004F935F936F937F938F939F93AF93BF9306
:101A1000EF93FF931092E9008091E80083FF3CC1AF
:101A20004091F1003091F1008091F100682F70E059
:101A30002091F100922F80E0682B792B8091F100AA
:101A4000A82FB0E02091F100922F80E0A82BB92BB5
:101A50001091F1000091F10082EF8093E8003630A0
:101A600009F05AC023EB30E0A90145505040F9017C
:101A70003797859194918617970701F5FA0185911B
:101A800094918A179B07D1F49A012E5F3F4FF90179
:101A9000659174912E5F3F4FF9014491212F30E001
:101AA000902F80E0282B392B2F3F310519F010F0B3
:101AB0002FEF30E0241758F4422F09C0295F3F4F21
:101AC000495F5F4FF0E02D3D3F0789F6E5C05EEFCF
:101AD0008091E800282F30E0C90185709070892B33
:101AE000B9F322FDDCC0342F413108F030E1232F5F
:101AF000CB0106C0FC010196E491E093F100215076
:101B00002223C1F7630F711D431B5093E800442348
:101B1000F9F63031E9F2C3C0353061F48EEF8093CD
:101B2000E8008091E80080FFFCCF862F80688093DA
:101B3000E300B5C0393051F5442309F0ADC06093DE
:101B4000550310925603109257038EEF8093E800CE
:101B500086ED90E021E02093E900FC010196E491FC
:101B6000E093EB00EE2369F0AC014F5F5F4FFC01A7
:101B700084918093EC00CA010196FA01349130936C
:101B8000ED002F5F253039F78EE181C0383061F4E8
:101B9000403809F081C08091E80080FFFCCF80913F
:101BA00055038093F10050C0313289F4413A09F075
:101BB00073C08091E80080FFFCCFE4E4F3E0819102
:101BC0008093F10083E0EB34F807C9F73DC0303271
:101BD000A1F4413209F060C08091E80082FFFCCF9F
:101BE000E4E4F3E08091F100819383E0EB34F807C3
:101BF000C9F78BEF8093E80027C0323251F44132AD
:101C000009F04AC0609356038091E80080FFFCCF42
:101C10001BC03323E9F48091E80080FFFCCF4238F9
:101C200011F080E00DC0A093E9008091EB0090E0FE
:101C300025E0969587952A95E1F781701092E90045
:101C40008093F1001092F1008EEF8093E80027C09E
:101C5000313011F0333001F54230F1F4672BE1F40B
:101C60002A2F2F77822F81508430B0F48EEF80930B
:101C7000E8002093E900333079F089E18093EB00AC
:101C800081E090E002C0880F991F2A95E2F78093C7
:101C9000EA001092EA0003C081E28093EB00FF911A
:101CA000EF91BF91AF919F918F917F916F915F91D4
:101CB0004F913F912F911F910F910F900FBE0F9059
:101CC0001F9018955058BB27AA270ED04DC13ED162
:101CD00030F043D120F031F49F3F11F41EF433C1B2
:101CE0000EF4E095E7FB29C1E92F4FD180F3BA1735
:101CF000620773078407950718F071F49EF567C1B2
:101D00000EF4E0950B2EBA2FA02D0B01B901900116
:101D10000C01CA01A0011124FF27591B99F0593F5A
:101D200050F4503E68F11A16F040A22F232F342FA2
:101D30004427585FF3CF469537952795A795F040F0
:101D40005395C9F77EF41F16BA0B620B730B840B05
:101D5000BAF09150A1F0FF0FBB1F661F771F881FBD
:101D6000C2F70EC0BA0F621F731F841F48F4879515
:101D700077956795B795F7959E3F08F0B3CF939504
:101D8000880F08F09927EE0F9795879508950CD046
:101D9000EBC0E3D040F0DAD030F021F45F3F19F02F
:101DA000CCC0511115C1CFC0F0D098F39923C9F31D
:101DB0005523B1F3951B550BBB27AA276217730751
:101DC000840738F09F5F5F4F220F331F441FAA1F05
:101DD000A9F333D00E2E3AF0E0E830D091505040C5
:101DE000E695001CCAF729D0FE2F27D0660F771F73
:101DF000881FBB1F261737074807AB07B0E809F055
:101E0000BB0B802DBF01FF2793585F4F2AF09E3FE9
:101E1000510568F092C0DCC05F3FECF3983EDCF304
:101E2000869577956795B795F7959F5FC9F7880F62
:101E3000911D9695879597F90895E1E0660F771FB4
:101E4000881FBB1F621773078407BA0720F0621B45
:101E5000730B840BBA0BEE1F88F7E095089504D03E
:101E60006894B111B5C0089598D088F09F5790F04C
:101E7000B92F9927B751A0F0D1F0660F771F881FAF
:101E8000991F1AF0BA95C9F712C0B13081F09FD0EE
:101E9000B1E008959CC0672F782F8827B85F39F08C
:101EA000B93FCCF3869577956795B395D9F73EF40E
:101EB00090958095709561957F4F8F4F9F4F0895B6
:101EC000E89409C097FB3EF49095809570956195D4
:101ED0007F4F8F4F9F4F9923A9F0F92F96E9BB278A
:101EE0009395F695879577956795B795F111F8CF06
:101EF000FAF4BB0F11F460FF1BC06F5F7F4F8F4F71
:101F00009F4F16C0882311F096E911C0772321F066
:101F10009EE8872F762F05C0662371F096E8862FFE
:101F200070E060E02AF09A95660F771F881FDAF755
:101F3000880F9695879597F9089597F99F6780E898
:101F400070E060E008959FEF80EC089500240A940B
:101F50001616170618060906089500240A94121684
:101F60001306140605060895092E0394000C11F4B7
:101F7000882352F0BB0F40F4BF2B11F460FF04C064
:101F80006F5F7F4F8F4F9F4F089557FD9058440FBD
:101F9000551F59F05F3F71F04795880F97FB991FC8
:101FA00061F09F3F79F08795089512161306140685
:101FB000551FF2CF4695F1DF08C016161706180612
:101FC000991FF1CF86957105610508940895E894ED
:101FD000BB2766277727CB0197F908950BD0C4CF8D
:101FE000B5DF28F0BADF18F0952309F0A6CFABCF04
:101FF0001124EECFCADFA0F3959FD1F3950F50E0E7
:10200000551F629FF001729FBB27F00DB11D639FAA
:10201000AA27F00DB11DAA1F649F6627B00DA11D50
:10202000661F829F2227B00DA11D621F739FB00DF6
:10203000A11D621F839FA00D611D221F749F332766
:10204000A00D611D231F849F600D211D822F762FFF
:102050006A2F11249F5750408AF0E1F088234AF0FC
:10206000EE0FFF1FBB1F661F771F881F9150504048
:10207000A9F79E3F510570F060CFAACF5F3FECF308
:10208000983EDCF3869577956795B795F795E79534
:102090009F5FC1F7FE2B880F911D9695879597F945
:1020A000089597FB092E07260AD077FD04D00CD09F
:1020B00006D000201AF4709561957F4F0895F6F7C9
:1020C000909581959F4F0895AA1BBB1B51E107C0B6
:1020D000AA1FBB1FA617B70710F0A61BB70B881FB8
:1020E000991F5A95A9F780959095BC01CD01089547
:0420F000F894FFCF92
:1020F40020427265616B204F757420003E506F6EF4
:10210400670020506F6E67003E427265616B204F1E
:10211400757400442057696C736F6E003036333227
:102124003531353700000000000000005F0000007A
:1021340007000700147F147F14242A7F2A12231314
:1021440008646236495522500005030000001C2231
:1021540041000041221C0014083E081408083E08EF
:1021640008005030000008080808080060600000FB
:1021740020100804023E5149453E00427F4000427F
:10218400615149462141454B311814127F102745AE
:102194004545393C4A4949300171090503364949E5
:1021A4004936064949291E003636000000563600D5
:1021B40000081422410014141414140041221408B9
:1021C4000201510906324979413E7E1111117E7F87
:1021D400494949363E414141227F4141221C7F49C0
:1021E4004949417F090909013E4149497A7F080863
:1021F400087F00417F41002040413F017F081422B5
:10220400417F404040407F020C027F7F0408107FE2
:102214003E4141413E7F090909063E4151215E7F0D
:1022240009192946464949493101017F01013F40C5
:1022340040403F1F2040201F3F4038403F63140868
:10224400146307087008076151494543007F414101
:102254000002040810200041417F0004020102042E
:102264004040404040000102040020545454787F10
:10227400484444383844444420384444487F38541B
:10228400545418087E0901020C5252523E7F08042D
:10229400047800447D40002040443D007F102844E1
:1022A4000000417F40007C041804787C0804047812
:1022B40038444444387C14141408081414187C7CDE
:1022C400080404084854545420043F4440203C402B
:1022D40040207C1C2040201C3C4030403C442810C2
:1022E40028440C5050503C4464544C44000836413B
:1022F4000000007F000000413608001008081008A4
:102304007846414678506C61796572203100506C92
:102314006179657220320057696E7300FF032F00E4
:1023240053000C0003000A00040002000100150021
:0C2334000700010000E1000000000800AC
:00000001FF
